{
  "transactions": [
    {
      "hash": "0xbacd59c396dd7a3dda65a5a327c9d5359bb97cf011fe5fe104e93c856809580f",
      "transactionType": "CALL",
      "contractName": null,
      "contractAddress": "0x16874474a584d7a9b2c32b3dc9134c493db635ed",
      "function": "submitShowcaseData(string[])",
      "arguments": [
        "[\"project0\", \"project1\", \"project2\", \"project3\", \"project4\"]"
      ],
      "transaction": {
        "from": "0x0cb7d2f7b95298e00d1108079499b48993f2d59c",
        "to": "0x16874474a584d7a9b2c32b3dc9134c493db635ed",
        "gas": "0x37d6f",
        "value": "0x0",
        "input": "0xb806bffc0000000000000000000000000000000000000000000000000000000000000020000000000000000000000000000000000000000000000000000000000000000500000000000000000000000000000000000000000000000000000000000000a000000000000000000000000000000000000000000000000000000000000000e00000000000000000000000000000000000000000000000000000000000000120000000000000000000000000000000000000000000000000000000000000016000000000000000000000000000000000000000000000000000000000000001a0000000000000000000000000000000000000000000000000000000000000000870726f6a65637430000000000000000000000000000000000000000000000000000000000000000000000000000000000000000000000000000000000000000870726f6a65637431000000000000000000000000000000000000000000000000000000000000000000000000000000000000000000000000000000000000000870726f6a65637432000000000000000000000000000000000000000000000000000000000000000000000000000000000000000000000000000000000000000870726f6a65637433000000000000000000000000000000000000000000000000000000000000000000000000000000000000000000000000000000000000000870726f6a65637434000000000000000000000000000000000000000000000000",
        "nonce": "0x6",
        "chainId": "0x706"
      },
      "additionalContracts": [],
      "isFixedGasLimit": false
    },
    {
      "hash": "0x8edcd1aac1e56febd535e5de8e9afc51b44c0f3eeece123e200e76a37341d59f",
      "transactionType": "CALL",
      "contractName": null,
      "contractAddress": "0x16874474a584d7a9b2c32b3dc9134c493db635ed",
      "function": "startVotingPeriod()",
      "arguments": [],
      "transaction": {
        "from": "0x0cb7d2f7b95298e00d1108079499b48993f2d59c",
        "to": "0x16874474a584d7a9b2c32b3dc9134c493db635ed",
        "gas": "0xea98",
        "value": "0x0",
        "input": "0xc64482ab",
        "nonce": "0x7",
        "chainId": "0x706"
      },
      "additionalContracts": [],
      "isFixedGasLimit": false
    },
    {
      "hash": "0xb52a8507eb4ec2e2bf4d3d52916982efb4e16572a418dd714d3ba86376da2950",
      "transactionType": "CALL",
      "contractName": null,
      "contractAddress": "0x16874474a584d7a9b2c32b3dc9134c493db635ed",
      "function": "submitVote(uint8,bytes32,bytes32,bytes32,bytes)",
      "arguments": [
        "27",
        "0xeb2b3b575960f3d46a04f5c08356a1f10487bca2afaad98a3a8fc034fcee477e",
        "0x48d433732063deb22c5219b59fdf07b2ac86405ed09e0d580af8316a531e6496",
        "0xe3657a49450cc2675d49a82cc79b82ecb9e839e14f85c1e00744d9c289cf58ae",
        "0x000100020003"
      ],
      "transaction": {
        "from": "0x0cb7d2f7b95298e00d1108079499b48993f2d59c",
        "to": "0x16874474a584d7a9b2c32b3dc9134c493db635ed",
        "gas": "0x2da13",
        "value": "0x0",
        "input": "0x413b0ea6000000000000000000000000000000000000000000000000000000000000001beb2b3b575960f3d46a04f5c08356a1f10487bca2afaad98a3a8fc034fcee477e48d433732063deb22c5219b59fdf07b2ac86405ed09e0d580af8316a531e6496e3657a49450cc2675d49a82cc79b82ecb9e839e14f85c1e00744d9c289cf58ae00000000000000000000000000000000000000000000000000000000000000a000000000000000000000000000000000000000000000000000000000000000060001000200030000000000000000000000000000000000000000000000000000",
        "nonce": "0x8",
        "chainId": "0x706"
      },
      "additionalContracts": [],
      "isFixedGasLimit": false
    }
  ],
  "receipts": [
    {
      "status": "0x1",
      "cumulativeGasUsed": "0x2b440",
      "logs": [],
      "logsBloom": "0x00000000000000000000000000000000000000000000000000000000000000000000000000000000000000000000000000000000000000000000000000000000000000000000000000000000000000000000000000000000000000000000000000000000000000000000000000000000000000000000000000000000000000000000000000000000000000000000000000000000000000000000000000000000000000000000000000000000000000000000000000000000000000000000000000000000000000000000000000000000000000000000000000000000000000000000000000000000000000000000000000000000000000000000000000000000",
      "type": "0x2",
      "transactionHash": "0xbacd59c396dd7a3dda65a5a327c9d5359bb97cf011fe5fe104e93c856809580f",
      "transactionIndex": "0x1",
      "blockHash": "0xcae10e8ca8f6404979c4e44f18a449571edff3e848c0abf79890677c30bcf92c",
      "blockNumber": "0x1cc52",
      "gasUsed": "0x2b440",
      "effectiveGasPrice": "0x5f5e100",
      "from": "0x0cb7d2f7b95298e00d1108079499b48993f2d59c",
      "to": "0x16874474a584d7a9b2c32b3dc9134c493db635ed",
      "contractAddress": null,
      "gasUsedForL1": "0x2d6b",
      "l1BlockNumber": "0x602e2e"
    },
    {
      "status": "0x1",
      "cumulativeGasUsed": "0xbda0",
      "logs": [],
      "logsBloom": "0x00000000000000000000000000000000000000000000000000000000000000000000000000000000000000000000000000000000000000000000000000000000000000000000000000000000000000000000000000000000000000000000000000000000000000000000000000000000000000000000000000000000000000000000000000000000000000000000000000000000000000000000000000000000000000000000000000000000000000000000000000000000000000000000000000000000000000000000000000000000000000000000000000000000000000000000000000000000000000000000000000000000000000000000000000000000",
      "type": "0x2",
      "transactionHash": "0x8edcd1aac1e56febd535e5de8e9afc51b44c0f3eeece123e200e76a37341d59f",
      "transactionIndex": "0x1",
      "blockHash": "0x675062165d1a25f0bf3dad51f03ac9e77fd93adf55137bf3a06b881641999cb3",
      "blockNumber": "0x1cc53",
      "gasUsed": "0xbda0",
      "effectiveGasPrice": "0x5f5e100",
      "from": "0x0cb7d2f7b95298e00d1108079499b48993f2d59c",
      "to": "0x16874474a584d7a9b2c32b3dc9134c493db635ed",
      "contractAddress": null,
      "gasUsedForL1": "0x13c8",
      "l1BlockNumber": "0x602e2e"
    },
    {
      "status": "0x1",
      "cumulativeGasUsed": "0x24b66",
      "logs": [],
      "logsBloom": "0x00000000000000000000000000000000000000000000000000000000000000000000000000000000000000000000000000000000000000000000000000000000000000000000000000000000000000000000000000000000000000000000000000000000000000000000000000000000000000000000000000000000000000000000000000000000000000000000000000000000000000000000000000000000000000000000000000000000000000000000000000000000000000000000000000000000000000000000000000000000000000000000000000000000000000000000000000000000000000000000000000000000000000000000000000000000",
      "type": "0x2",
      "transactionHash": "0xb52a8507eb4ec2e2bf4d3d52916982efb4e16572a418dd714d3ba86376da2950",
      "transactionIndex": "0x1",
      "blockHash": "0xadd01b9f9425d29693626f848c0ab115d2d8f309d274b235a43c1c95c2569b7b",
      "blockNumber": "0x1cc54",
      "gasUsed": "0x24b66",
      "effectiveGasPrice": "0x5f5e100",
      "from": "0x0cb7d2f7b95298e00d1108079499b48993f2d59c",
      "to": "0x16874474a584d7a9b2c32b3dc9134c493db635ed",
      "contractAddress": null,
      "gasUsedForL1": "0x3ad6",
      "l1BlockNumber": "0x602e2e"
    }
  ],
  "libraries": [],
  "pending": [],
  "returns": {},
  "timestamp": 1720880757,
  "chain": 1798,
  "commit": "9a87d2e"
}