{
  "transactions": [
    {
      "hash": "0x6c003656e272f8aa32ab488baa82c3a3fcc81d191a2be31c67fef7accf179cd0",
      "transactionType": "CALL",
      "contractName": null,
      "contractAddress": "0xf7adef4252fbba21ba8274e02cceb9f25f4f6fe4",
      "function": "submitShowcaseData(string[])",
      "arguments": [
        "[\"project0\", \"project1\", \"project2\", \"project3\", \"project4\"]"
      ],
      "transaction": {
        "from": "0x0cb7d2f7b95298e00d1108079499b48993f2d59c",
        "to": "0xf7adef4252fbba21ba8274e02cceb9f25f4f6fe4",
        "gas": "0x37d50",
        "value": "0x0",
        "input": "0xb806bffc0000000000000000000000000000000000000000000000000000000000000020000000000000000000000000000000000000000000000000000000000000000500000000000000000000000000000000000000000000000000000000000000a000000000000000000000000000000000000000000000000000000000000000e00000000000000000000000000000000000000000000000000000000000000120000000000000000000000000000000000000000000000000000000000000016000000000000000000000000000000000000000000000000000000000000001a0000000000000000000000000000000000000000000000000000000000000000870726f6a65637430000000000000000000000000000000000000000000000000000000000000000000000000000000000000000000000000000000000000000870726f6a65637431000000000000000000000000000000000000000000000000000000000000000000000000000000000000000000000000000000000000000870726f6a65637432000000000000000000000000000000000000000000000000000000000000000000000000000000000000000000000000000000000000000870726f6a65637433000000000000000000000000000000000000000000000000000000000000000000000000000000000000000000000000000000000000000870726f6a65637434000000000000000000000000000000000000000000000000",
        "nonce": "0x2",
        "chainId": "0x706"
      },
      "additionalContracts": [],
      "isFixedGasLimit": false
    },
    {
      "hash": "0xba71fa9bdc52f1e1ae5c8aaeeb9672b025aa71a7432e5edbd2081c553e8280f3",
      "transactionType": "CALL",
      "contractName": null,
      "contractAddress": "0xf7adef4252fbba21ba8274e02cceb9f25f4f6fe4",
      "function": "startVotingPeriod()",
      "arguments": [],
      "transaction": {
        "from": "0x0cb7d2f7b95298e00d1108079499b48993f2d59c",
        "to": "0xf7adef4252fbba21ba8274e02cceb9f25f4f6fe4",
        "gas": "0xf8c7",
        "value": "0x0",
        "input": "0xc64482ab",
        "nonce": "0x3",
        "chainId": "0x706"
      },
      "additionalContracts": [],
      "isFixedGasLimit": false
    },
    {
      "hash": "0x4dd644651995c4d72cc7027ebacbc5edf836657bd03a15a53bf4969f3f0c3a11",
      "transactionType": "CALL",
      "contractName": null,
      "contractAddress": "0xf7adef4252fbba21ba8274e02cceb9f25f4f6fe4",
      "function": "submitVote(uint8,bytes32,bytes32,bytes32,bytes)",
      "arguments": [
        "27",
        "0xeb2b3b575960f3d46a04f5c08356a1f10487bca2afaad98a3a8fc034fcee477e",
        "0x48d433732063deb22c5219b59fdf07b2ac86405ed09e0d580af8316a531e6496",
        "0xe3657a49450cc2675d49a82cc79b82ecb9e839e14f85c1e00744d9c289cf58ae",
        "0x000100020003"
      ],
      "transaction": {
        "from": "0x0cb7d2f7b95298e00d1108079499b48993f2d59c",
        "to": "0xf7adef4252fbba21ba8274e02cceb9f25f4f6fe4",
        "gas": "0x2d93e",
        "value": "0x0",
        "input": "0x413b0ea6000000000000000000000000000000000000000000000000000000000000001beb2b3b575960f3d46a04f5c08356a1f10487bca2afaad98a3a8fc034fcee477e48d433732063deb22c5219b59fdf07b2ac86405ed09e0d580af8316a531e6496e3657a49450cc2675d49a82cc79b82ecb9e839e14f85c1e00744d9c289cf58ae00000000000000000000000000000000000000000000000000000000000000a000000000000000000000000000000000000000000000000000000000000000060001000200030000000000000000000000000000000000000000000000000000",
        "nonce": "0x4",
        "chainId": "0x706"
      },
      "additionalContracts": [],
      "isFixedGasLimit": false
    }
  ],
  "receipts": [
    {
      "status": "0x1",
      "cumulativeGasUsed": "0x2ba8f",
      "logs": [],
      "logsBloom": "0x00000000000000000000000000000000000000000000000000000000000000000000000000000000000000000000000000000000000000000000000000000000000000000000000000000000000000000000000000000000000000000000000000000000000000000000000000000000000000000000000000000000000000000000000000000000000000000000000000000000000000000000000000000000000000000000000000000000000000000000000000000000000000000000000000000000000000000000000000000000000000000000000000000000000000000000000000000000000000000000000000000000000000000000000000000000",
      "type": "0x2",
      "transactionHash": "0x6c003656e272f8aa32ab488baa82c3a3fcc81d191a2be31c67fef7accf179cd0",
      "transactionIndex": "0x1",
      "blockHash": "0x25195926edb9864f5cd0028441c7a1e5ce5dff139cc4cf8dcd8a317c9a75d065",
      "blockNumber": "0x1cc3c",
      "gasUsed": "0x2ba8f",
      "effectiveGasPrice": "0x5f5e100",
      "from": "0x0cb7d2f7b95298e00d1108079499b48993f2d59c",
      "to": "0xf7adef4252fbba21ba8274e02cceb9f25f4f6fe4",
      "contractAddress": null,
      "gasUsedForL1": "0x33d0",
      "l1BlockNumber": "0x602dbe"
    },
    {
      "status": "0x1",
      "cumulativeGasUsed": "0xc081",
      "logs": [],
      "logsBloom": "0x00000000000000000000000000000000000000000000000000000000000000000000000000000000000000000000000000000000000000000000000000000000000000000000000000000000000000000000000000000000000000000000000000000000000000000000000000000000000000000000000000000000000000000000000000000000000000000000000000000000000000000000000000000000000000000000000000000000000000000000000000000000000000000000000000000000000000000000000000000000000000000000000000000000000000000000000000000000000000000000000000000000000000000000000000000000",
      "type": "0x2",
      "transactionHash": "0xba71fa9bdc52f1e1ae5c8aaeeb9672b025aa71a7432e5edbd2081c553e8280f3",
      "transactionIndex": "0x1",
      "blockHash": "0x3d5087353a603369f2f91507eb08ce4dfbd87eeb4fc843573235eeb92f307872",
      "blockNumber": "0x1cc3d",
      "gasUsed": "0xc081",
      "effectiveGasPrice": "0x5f5e100",
      "from": "0x0cb7d2f7b95298e00d1108079499b48993f2d59c",
      "to": "0xf7adef4252fbba21ba8274e02cceb9f25f4f6fe4",
      "contractAddress": null,
      "gasUsedForL1": "0x1666",
      "l1BlockNumber": "0x602dbe"
    },
    {
      "status": "0x1",
      "cumulativeGasUsed": "0x25293",
      "logs": [],
      "logsBloom": "0x00000000000000000000000000000000000000000000000000000000000000000000000000000000000000000000000000000000000000000000000000000000000000000000000000000000000000000000000000000000000000000000000000000000000000000000000000000000000000000000000000000000000000000000000000000000000000000000000000000000000000000000000000000000000000000000000000000000000000000000000000000000000000000000000000000000000000000000000000000000000000000000000000000000000000000000000000000000000000000000000000000000000000000000000000000000",
      "type": "0x2",
      "transactionHash": "0x4dd644651995c4d72cc7027ebacbc5edf836657bd03a15a53bf4969f3f0c3a11",
      "transactionIndex": "0x1",
      "blockHash": "0xc1a3db0a93853d81bd4dbdbfbef5d4687f586c05d89d61fd3da9b94969f4284c",
      "blockNumber": "0x1cc3e",
      "gasUsed": "0x25293",
      "effectiveGasPrice": "0x5f5e100",
      "from": "0x0cb7d2f7b95298e00d1108079499b48993f2d59c",
      "to": "0xf7adef4252fbba21ba8274e02cceb9f25f4f6fe4",
      "contractAddress": null,
      "gasUsedForL1": "0x429d",
      "l1BlockNumber": "0x602dbe"
    }
  ],
  "libraries": [],
  "pending": [],
  "returns": {},
  "timestamp": 1720879165,
  "chain": 1798,
  "commit": "821bf61"
}