{
  "transactions": [
    {
      "hash": "0x35e85e31d7985fa149e9fd0740192613e4f43524eed8ee8d7d20a5ffeb0af29f",
      "transactionType": "CALL",
      "contractName": null,
      "contractAddress": "0x003fe86d541a2ec57992242c1567eb43c60451fe",
      "function": "submitFinalists(uint16[])",
      "arguments": [
        "[58]"
      ],
      "transaction": {
        "from": "0x1111eacb9a3a992b70e42b68f8b596a9070ec3aa",
        "to": "0x003fe86d541a2ec57992242c1567eb43c60451fe",
        "gas": "0x17fba",
        "value": "0x0",
        "input": "0x87eb1a6400000000000000000000000000000000000000000000000000000000000000200000000000000000000000000000000000000000000000000000000000000001000000000000000000000000000000000000000000000000000000000000003a",
        "nonce": "0x15",
        "chainId": "0x706"
      },
      "additionalContracts": [],
      "isFixedGasLimit": false
    }
  ],
  "receipts": [
    {
      "status": "0x1",
      "cumulativeGasUsed": "0x11aff",
      "logs": [],
      "logsBloom": "0x00000000000000000000000000000000000000000000000000000000000000000000000000000000000000000000000000000000000000000000000000000000000000000000000000000000000000000000000000000000000000000000000000000000000000000000000000000000000000000000000000000000000000000000000000000000000000000000000000000000000000000000000000000000000000000000000000000000000000000000000000000000000000000000000000000000000000000000000000000000000000000000000000000000000000000000000000000000000000000000000000000000000000000000000000000000",
      "type": "0x2",
      "transactionHash": "0x35e85e31d7985fa149e9fd0740192613e4f43524eed8ee8d7d20a5ffeb0af29f",
      "transactionIndex": "0x1",
      "blockHash": "0xd107eddf3b8164458894e1fcc3adac3acd452e1f8192f945bffd0300e810ce78",
      "blockNumber": "0x1cd18",
      "gasUsed": "0x11aff",
      "effectiveGasPrice": "0x5f5e100",
      "from": "0x1111eacb9a3a992b70e42b68f8b596a9070ec3aa",
      "to": "0x003fe86d541a2ec57992242c1567eb43c60451fe",
      "contractAddress": null,
      "gasUsedForL1": "0x52f",
      "l1BlockNumber": "0x603257"
    }
  ],
  "libraries": [],
  "pending": [],
  "returns": {},
  "timestamp": 1720895761,
  "chain": 1798,
  "commit": "e7a9ed0"
}